:020000040000FA
:100000000A128A11F02F00308A000408840A82073D
:1000100000343F3406345B344F3466346D347D3401
:0800200007347F346F3409340A
:1009B0007008013E84000A128A1103200A128A116B
:1009C00083120313880008000B3084000A128A1176
:1009D00003200A128A118312031387000D30860048
:1009E000F401F501012D0730F3007D30F200F20B28
:1009F000F72CF30BF72C0130F4070318F50A00303D
:100A0000F5077508803AF2007108803A7202031DFA
:100A10000B2D70087402031C0E2D0F2DF32C831266
:100A20000313861408007008013E84000A128A111C
:100A300003200A128A1183120313870007308600ED
:100A4000F601F701312D0730F5007D30F400F40B8D
:100A5000272DF50B272D0130F6070318F70A003074
:100A6000F7077708803AF4007308803A7402031D90
:100A70003B2D72087602031C3E2D3F2D232D831241
:100A80000313861508007008013E84000A128A11BB
:100A900003200A128A118312031387000B30860089
:100AA000F601F701612D0730F5007D30F400F40BFD
:100AB000572DF50B572D0130F6070318F70A0030B4
:100AC000F7077708803AF4007308803A7402031D30
:100AD0006B2D72087602031C6E2D6F2D532D831221
:100AE0000313061508007008013E84000A128A11DB
:100AF00003200A128A118312031387000E30860026
:100B0000F601F701912D0730F5007D30F400F40B6C
:100B1000872DF50B872D0130F6070318F70A0030F3
:100B2000F7077708803AF4007308803A7402031DCF
:100B30009B2D72087602031C9E2D9F2D832D831200
:100B4000031306140800831203132108F100200880
:100B5000F0000A128A11D8240A128A118312031390
:100B60002308F1002208F0002908F3002808F20009
:100B70000A128A1173250A128A1183120313290893
:100B8000F1002808F0000A128A11E4240A128A11DE
:100B9000831203132508F1002408F0002908F3004C
:100BA0002808F2000A128A1143250A128A118312B8
:100BB00003132708F1002608F0002908F30028088D
:100BC000F2000A128A1113250A128A1108008312F0
:100BD000031389018801870186018501303083165E
:100BE0000313860088018701831203138615861973
:100BF000FA2DFE2D831203130615012E8312031303
:100C000006110619042E082E8312031386140B2EC8
:100C100083120313861086180E2E122E83120313CE
:100C20000614152E831203130610831203133508BE
:100C3000A1003408A0003308A3003208A20039083C
:100C4000A5003808A4003708A7003608A6000A3017
:100C5000A8000030A9000A128A11A3250A128A11DD
:100C60000A128A1109270A128A1183120313320801
:100C7000330403193C2E3D2E152E3508AB003408E5
:100C8000AA003308AD003208AC003908AF003808BC
:100C9000AE003708B1003608B0000A128A11562695
:100CA0000A128A11152E0A128A11002883120313C0
:100CB00006170330FA008A30F9005530F800F80BB7
:100CC0005F2EF90B5F2EFA0B5F2E662E8312031335
:100CD00006130330FA008A30F9005530F800F80B9B
:100CE0006F2EF90B6F2EFA0B6F2E762E83120313D5
:100CF0002B08A1002A08A0002D08A3002C08A200A0
:100D00002F08A5002E08A4003108A7003008A6006F
:100D10000A30A8000030A9000A128A11A3250A127D
:100D20008A11022FFB01FC01831203132B08A1007F
:100D30002A08A0002D08A3002C08A2002F08A50057
:100D40002E08A4003108A7003008A6000A30A80029
:100D50000030A9000A128A11A3250A128A11013053
:100D6000FB070318FC0A0030FC077C08803AFF00F0
:100D700080307F02031DBE2E0A307B02031CC12E71
:100D8000C22E942E83120313B11FC72EC82EFB2E22
:100D90000930B0000030B100FF30AE070318AF0AD1
:100DA000FF30AF07AF1FD52ED62E022F0530AE0075
:100DB0000030AF00FF30AC070318AD0AFF30AD07BD
:100DC000AD1FE32EE42E022F0930AC000030AD0041
:100DD000FF30AA070318AB0AFF30AB07AB1FF12E99
:100DE000F22E022FB001B101AE01AF01AC01AD0195
:100DF000AA01AB01022FFF30B0070318B10AFF3080
:100E0000B107022F83120313AB1F072F082F922E57
:100E10000800831203133508A1003408A00033082A
:100E2000A3003208A2003908A5003808A40037083A
:100E3000A7003608A6000A30A8000030A9000A1250
:100E40008A11A3250A128A1183120313861E292FE1
:100E50002A2FEF2F4130F900EE30F800F80B2E2F3B
:100E6000F90B2E2F0000E92F3508A1003408A0004F
:100E70003308A3003208A2003908A5003808A400EE
:100E80003708A7003608A6000A30A8000030A900DD
:100E90000A128A11A3250A128A1183120313061E4D
:100EA000522F532FE92F4130F900EE30F800F80BA4
:100EB000572FF90B572F0000E32F3508A1003408F6
:100EC000A0003308A3003208A2003908A5003808A2
:100ED000A4003708A7003608A6000530A800003097
:100EE000A9000A128A11A3250A128A11013083125D
:100EF0000313B6070318B70A0030B7073708803A5C
:100F0000FF0080307F02031D872F0A303602031C4A
:100F10008A2F8B2FE32F013083120313B807031896
:100F2000B90A0030B907B601B7013908803AFF00A5
:100F300080307F02031D9E2F06303802031CA12F34
:100F4000A22FE32F013083120313B2070318B30A51
:100F50000030B307B801B9013308803AFF00803090
:100F60007F02031DB52F0A303202031CB82FB92FA0
:100F7000E32F83120313B201B3010130B407031846
:100F8000B50A0030B5073508803AFF0080307F028F
:100F9000031DCC2F06303402031CCF2FD02FE32F9C
:100FA000053083120313B4000030B5000930B200DD
:100FB0000030B3000530B8000030B9000930B60089
:100FC0000030B700E32F83120313061AE82FE92F2E
:100FD0005D2F83120313861AEE2FEF2F342F080094
:100FE00083120313B201B301B401B501B601B70115
:100FF000B801B901BA01BB0183010A128A11E72DB8
:02400E003A3F37
:00000001FF
