:020000040000FA
:100000000A128A11F02F00308A000408840A82073D
:1000100000343F3406345B344F3466346D347D3401
:0600200007347F346F3449
:100F5000013400348312031389018801870186015B
:100F60008501831603138801870186010130F30789
:100F70000318F40A0030F407013084000A128A11C1
:100F800003200A128A11831288007308013E84002C
:100F90000A128A1103200A128A1187001A30F200FD
:100FA0005E30F1006E30F000F00BD42FF10BD42F37
:100FB000F20BD42F00007308013E84000A128A113C
:100FC00003200A128A118312031386000130F307EB
:100FD0000318F40A0030F407B62F0A128A11002809
:100FE0000A128A11A8270A128A11F3000A128A111A
:100FF000A9270A128A11F40083010A128A11AA2F62
:02400E003A3F37
:00000001FF
