:020000040000FA
:100000000A128A11E82F00308A000408840A820745
:1000100000343F3406345B344F3466346D347D3401
:0800200007347F346F3409340A
:100AA2007008013E84000A128A1103200A128A1178
:100AB20083120313880008007008013E84000A12A2
:100AC2008A1103200A128A118312031387000E303F
:100AD20086004130F300EE30F200F20B6E2DF30B84
:100AE2006E2D000083120313061408007008013EE5
:100AF20084000A128A1103200A128A118312031334
:100B020087000B3086004130F300EE30F200F20B2A
:100B1200882DF30B882D000083120313061508009D
:100B22007008013E84000A128A1103200A128A11F7
:100B3200831203138700073086004130F300EE3042
:100B4200F200F20BA22DF30BA22D0000831203136D
:100B52008615080083120313861EB02DB12D032EB5
:100B62004130F500EE30F400F40BB52DF50BB52D48
:100B72000000FD2D061EBE2DBF2DFD2D4130F500BE
:100B8200EE30F400F40BC32DF50BC32D0000F72D4E
:100B92007D08803AFF0080307F02031DD22D0A308B
:100BA2007C02031CD52DD62DDB2D0930FC00003034
:100BB200FD00FD2D0130FC070318FD0A0030FD0782
:100BC2007D08F1007C08F0000A128A1177250A12CA
:100BD2008A111A30F6005E30F5006E30F400F40B24
:100BE200F02DF50BF02DF60BF02D00008312031300
:100BF200061AFC2DFD2DC92D83120313861A022E0F
:100C0200032EBB2D080083120313861E092E0A2E03
:100C12005C2E4130F500EE30F400F40B0E2EF50B95
:100C22000E2E0000562E061E172E182E562E41305E
:100C3200F500EE30F400F40B1C2EF50B1C2E000018
:100C4200502E7B08803AFF0080307F02031D2B2E3E
:100C52000A307A02031C2E2E2F2E342E0930FA006F
:100C62000030FB00562E0130FA070318FB0A003051
:100C7200FB077B08F1007A08F0000A128A1191251D
:100C82000A128A111A30F6005E30F5006E30F40056
:100C9200F40B492EF50B492EF60B492E0000831258
:100CA2000313061A552E562E222E83120313861A6A
:100CB2005B2E5C2E142E080083120313861E622EF6
:100CC200632EB92E4130F300EE30F200F20B672EA4
:100CD200F30B672E0000B32E061E702E712EB32E5C
:100CE2004130F300EE30F200F20B752EF30B752E4D
:100CF2000000AD2E2308803AFF0080307F02031DE2
:100D0200842E0A302202031C872E882E8F2E093051
:100D120083120313A2000030A300B32E013083120A
:100D22000313A2070318A30A0030A3072308F10044
:100D32002208F0000A128A1151250A128A111A3069
:100D4200F4005E30F3006E30F200F20BA62EF30BCD
:100D5200A62EF40BA62E000083120313061AB22E3F
:100D6200B32E7B2E83120313861AB82EB92E6D2E44
:100D7200080083120313861EBF2EC02E162F413089
:100D8200F500EE30F400F40BC42EF50BC42E000077
:100D9200102F061ECD2ECE2E102F4130F500EE3034
:100DA200F400F40BD22EF50BD22E00000A2F2108EC
:100DB200803AFF0080307F02031DE12E0A302002BC
:100DC200031CE42EE52EEC2E093083120313A0003F
:100DD2000030A100102F013083120313A007031863
:100DE200A10A0030A1072108F1002008F0000A1230
:100DF2008A115D250A128A111A30F6005E30F5005A
:100E02006E30F400F40B032FF50B032FF60B032FB8
:100E1200000083120313061A0F2F102FD82E8312ED
:100E22000313861A152F162FCA2E080083120313D6
:100E320089018801870186018501303083160313F9
:100E420086008801870183120313861586192A2FCB
:100E52002E2F831203130615312F8312031306114B
:100E62000619342F382F8312031386143B2F831253
:100E72000313861086183E2F422F83120313061483
:100E8200452F8312031306100230B4000030B50060
:100E92003508B3003408B2003308B1003208B0009C
:100EA20083120313861E562F572FAF2F4130F8009F
:100EB200EE30F700F70B5B2FF80B5B2F0000A92F2A
:100EC2000A128A1104260A128A111A30F9005E30B7
:100ED200F8006E30F700F70B6C2FF80B6C2FF90B44
:100EE2006C2F00000A128A11AB250A128A111A30DD
:100EF200F9005E30F8006E30F700F70B7E2FF80B2A
:100F02007E2FF90B7E2F00000A128A11BA260A12CE
:100F12008A111A30F9005E30F8006E30F700F70BD4
:100F2200902FF80B902FF90B902F00000A128A11C4
:100F32005D260A128A111A30F9005E30F8006E300E
:100F4200F700F70BA22FF80BA22FF90BA22F00002C
:100F520083120313861AAE2FAF2F612F1A30F900B6
:100F62005E30F8006E30F700F70BB52FF80BB52F97
:100F7200F90BB52F0000831203132308F100220896
:100F8200F0000A128A1151250A128A1183120313E0
:100F92002108F1002008F0000A128A115D250A12C8
:100FA2008A117D08F1007C08F0000A128A11772567
:100FB2000A128A117B08F1007A08F0000A128A11DB
:100FC20091250A128A11512F0A128A110028FA0158
:100FD200FB01FC01FD0183120313A001A101A20187
:100FE200A301A401A501A601A701A801A901AA01C3
:0E0FF200AB01AC01AD0183010A128A11172F69
:02400E003A3F37
:00000001FF
